:100000000C942A000C9434000C9434000C943400AA
:100010000C9434000C9434000C9434000C94340090
:100020000C9434000C9434000C9434000C94340080
:100030000C9434000C9434000C9434000C94340070
:100040000C9434000C9434000C9434000C94340060
:100050000C94340011241FBECFE5D4E0DEBFCDBF29
:100060000E9436000C944A000C94000080E88ABB81
:1000700081E88BBBC899FDCFE7E8F3E13197F1F751
:1000800000C00000C899F5CF9BB390589BBBC89B9C
:08009000FECFEFCFF894FFCF83
:00000001FF
