S01200004C6564203720646F616E2E73726563E4
S11300000C942A000C943F000C943F000C943F0085
S11300100C943F000C943F000C943F000C943F0060
S11300200C943F000C943F000C943F000C943F0050
S11300300C943F000C943F000C943F000C943F0040
S11300400C943F000C943F000C943F000C943F0030
S11300500C943F0011241FBECFE5D4E0DEBFCDBF1A
S113006010E0A0E6B0E0E4EFF0E002C005900D92ED
S1130070A437B107D9F70E9441000C9478000C947E
S11300800000CF93DF93CDB7DEB764970FB6F89433
S1130090DEBF0FBECDBF84E1E0E6F0E0DE011196E5
S11300A001900D928A95E1F78FEF8ABB81E18BBBBA
S11300B089818BBB81E090E002C080E090E02FE773
S11300C034E84EE1215030404040E1F700C00000E8
S11300D0FC01EE0FFF1F21E030E02C0F3D1FE20F6B
S11300E0F31F20812BBB01968A30910541F7E5CFA0
S10700F0F894FFCFAE
S11300F4C000F900A400B000990092008200F80046
S107010480009000E3
S9030000FC
